:020000040800F2
:1000000008060020210B00085105000851050008D2
:100010005105000851050008510500085105000868
:100020005105000851050008510500085105000858
:100030005105000851050008510500085105000848
:100040005101000851010008510100085101000848
:100050005101000851010008510100085101000838
:10006000510100085101000851010008DD05000898
:100070005101000851010008510100085101000818
:100080005101000851010008510100085101000808
:1000900051010008510100085101000851010008F8
:1000A00051010008510100085101000851010008E8
:1000B00051010008510100087D05000851010008A8
:1000C00051010008510100085101000851010008C8
:1000D00051010008510100085101000851010008B8
:1000E00051010008510100085101000851010008A8
:1000F0005101000851010008510100085101000898
:100100005101000851010008510100085101000887
:100110005101000851010008510100085101000877
:100120005101000851010008510100085101000867
:100130005101000851010008510100085101000857
:100140005101000851010008510100085101000847
:100150002DE9F04F684600F05BB80000EFF308812E
:1001600081F30988022181F31488BFF36F8F0C4B50
:1001700083F308880B4B0C4A9A605A6942F4047264
:100180005A615A6A42F4E0225A624FF07F42DA61C1
:100190004FF47F021A62BFF34F8FBFF36F8F704728
:1001A0000802002000ED00E000000008054A936806
:1001B00091685B1A23F07F43984202D9C01A0B461C
:1001C000F6E7704710E000E04FF47A7300EBC000F0
:1001D000B0FBF3F0FFF7EABF00EBC000FFF7E6BFAC
:1001E00042F228335843FFF7E1BF08B572B605481D
:1001F00000F02AFBBFF34F8FBFF36F8F024A034B10
:10020000DA60FEE7080E00080400FA0500ED00E0E1
:10021000F7B50446EFF30382006AD2B210F0040F80
:1002200004F1240608D0EFF3098505F120070F2A11
:1002300008D9103A204906E03546EFF3098704F162
:100240004406F4E71D49DFF894E010F0080F1C485D
:1002500008BF7046AB6900901A4800F0F5FAEB68E9
:100260001948009395E80E0000F0EEFAE36817488D
:10027000009394E80E0000F0E7FAE36904F110013E
:1002800000930EC9124800F0DFFA236A296913F0BF
:10029000040FAB6918BF3A46009308BF32466B693A
:1002A0000C4800F0D1FAEB693A4631460A4800F0B2
:1002B000CBFAFFF79AFF00BF200E0008160E0008C9
:1002C000240E0008330E0008570E0008870E0008A1
:1002D000B70E0008E70E0008170F00082B0E0008E5
:1002E00008B5FFF73BFF1222254B1A60A3F5805398
:1002F0001A6842F480321A601A6891033AD5214A8A
:100300005A601A6842F080721A601A68920133D5F6
:100310005A6842F002025A605A6802F00C02082A37
:100320002CD11A68184922F001021A606FF07F423E
:100330004A6001220A600721D96140F61D019961D6
:100340005A614FF08062114B5A604FF0443302F112
:10035000705202F5843253601360C2F80434C2F85C
:100360000034C2F80438C2F80038BFF34F8FBFF32F
:100370006F8F08BD00BFBFE700BFC6E700BFCBE778
:100380000020024000C41D0010E000E00000014019
:10039000130914BF01234FF48033072903FA01F333
:1003A00030B5036102F00F024FF00F0409D908398C
:1003B00045688B009C4025EA04049A402243426031
:1003C00030BD036889008C4023EA040402FA01F17D
:1003D0002143016030BD00BF044B186880EA403003
:1003E00080EA504080EA401018607047000000200A
:1003F000012208B5064B07481A7000F025FA4FF4A1
:100400008052054B1A614FF40052C3F8102408BD06
:10041000080600203B0F0008000C014010B1024804
:1004200000F012BAE4E700BF470F000810B5044619
:10043000114800F009FA002323601023A36040F262
:100440002473636040F201432360A368102B05D13D
:100450002368012B02D1094800F0F6F9A368102B9C
:1004600008D140F201432068C31A58425841BDE800
:100470001040D3E70020FAE74B0F00085D0F00089B
:1004800010B504460A4800F0DFF941F61F43012287
:10049000A36241F28733E362E260002262600522D8
:1004A0002260E06ABDE81040C31A58425841B5E7DF
:1004B0006B0F00082DE9F0410E46074611461F4814
:1004C00000F0C2F94FF0000801234FF480621C4D88
:1004D00012216B603046C5F808806F612E61EA60BA
:1004E00000F0A9F844F2D303164CC4F80480AB60C2
:1004F0006368002BFCD06368012B04DD616812483F
:10050000013900F0A1F94FF480623146384600F01D
:10051000E0F810B10D4800F097F96368012B0BD19A
:100520004FF480623146384600F0D3F8B0FA80F0DC
:100530004009BDE8F04171E70020FAE77D0F0008AF
:1005400000000240080600208E0F0008AA0F0008D5
:1005500008B5EFF3038172B60648C9B200F074F92A
:100560004FF48052044B1A614FF40052C3F8102428
:10057000FEE700BFB60F0008000C01400022124B3E
:100580001A61124A13784BB14FF08042104BC3F8F6
:100590008020BFF34F8FBFF36F8F7047137A0D49E1
:1005A000002B14BF4FF480504FF08050086114BFEF
:1005B0004FF400504FF0005083F00103C1F81004D5
:1005C0000548137200F040B90008004008060020FA
:1005D00000E100E0000C0140321100080122044B50
:1005E0005A6000229A60034A53680133536070478F
:1005F00000000240080600202DE9F007B1E8F807E6
:10060000A0E8F807203AF9D1BDE8F00770472DE9D6
:10061000F007CDB24FF001346C4323462546264601
:100620002746A046A146A246A0E8F807203AFBD1FB
:10063000BDE8F0077047F8B532F01F0406460F46D4
:1006400015460CD083070AD12246FFF7E0FF05F0DC
:100650001F0533191D44AB4203D13046F8BD334664
:10066000F8E703F8017BF6E7F8B532F01F07064616
:100670000C46154610D040EA01039B070CD13A46C0
:10068000FFF7BAFF05F01F05F319E119013B0D440F
:10069000A94204D13046F8BD21463346F6E711F8A9
:1006A000012B03F8012FF3E7884230B405461446C6
:1006B00002D230BCFFF7D8BF21448218641AE1424D
:1006C00002D1284630BC704711F8013D02F8013DC7
:1006D000F5E710B50A44914201D1002305E010F876
:1006E000013B11F8014B1B1BF5D0184610BD02460B
:1006F0000346981A13F8011B0029FAD1704700230A
:100700008B4201D0C25C0AB9184670470133F7E743
:1007100010B501390244904201D1002307E010F8DE
:10072000014B11F8013FE31A01D1002CF3D1184617
:1007300010BD6FF00042FFF7EBBF421E11F8013B06
:1007400002F8013F002BF9D170470000044AD3683A
:1007500013F00103FBD13421D1601361704700BF56
:1007600000200240094B1A6842F001021A601A6820
:10077000910709D5064B1A69120641BF054A5A600E
:1007800002F188325A60E1E700BFF0E70010024052
:10079000002002402301674508B5FFF7D7FF064B4D
:1007A0001A6942F002021A6158611A6942F0400265
:1007B0001A61BDE80840C9E700200240F8B50D46BF
:1007C0001746FFF7C3FF094E841E023D2B1BD8427C
:1007D00000D1F8BD336943F00103336134F8022FCF
:1007E000231ADA53FFF7B2FFF0E700BF0020024000
:1007F00070B502460B46EFF3108404F0010472B6A4
:100800000D2580210D4800F065F80D490D4A11F8BD
:10081000013F13B904B962B670BD0A2B07D00D2B86
:10082000F5D01668360607D55360F0E700BF1668A6
:100830003606FBD55560F4E700BFF2E7110600204D
:1008400010060020003801400FB407B504A951F884
:10085000040B0191FFF7CCFF03B05DF804EB04B08B
:10086000704710B50B4A0C4C9369204643F4804303
:10087000936109221146FFF78BFD18220A212046B9
:10088000FFF786FD40F27122044B9A6042F20C029F
:10089000DA6010BD0010024000080140003801403D
:1008A000064B5A68DA6842F02002DA600022044BF4
:1008B00083F8252320225A60704700BF003801408A
:1008C00000E100E003688B4238BF1A70036801330F
:1008D000036070472DE9F04F814687B09A464B1E62
:1008E00002900093C71802F10108127852B9029BD6
:1008F0009F42C0F0FD801A700298A0EB090007B07B
:10090000BDE8F08F252A16D10026554634464346C9
:100910001A7808F10108642A6DD01CD8392A10D839
:10092000312A4AD22A2A42D0302A43D0232A0CD153
:1009300044F48064EBE7394602A8FFF7C3FF424660
:10094000D1E7582A5CD0632A64D0394602A8FFF761
:10095000B9FFAA46F3E7702A54D00FD8692A4AD0C3
:100960006F2A39D0682AF0D15A78682A06BF44F431
:10097000805403F1020844F40054C8E7752A3CD0BF
:10098000782A3FD0732AE0D1D5F800B005F1040AE7
:100990005D46741B15F8012B5C44B2BB002CCEDD08
:1009A0002022394602A8FFF78DFF013CF6E72E68AA
:1009B0000435ACE744F40064A9E7A2F130064246EE
:1009C000904612F8013BA3F1300109299FD80A2172
:1009D00001FB0636303EF3E744F0080414F4805F70
:1009E00005F1040A04F400732D6816D0EDB2CBB9FA
:1009F00024F4007425E044F4007444F00A04EDE7A4
:100A000044F4807444F01004E8E7394602A8FFF784
:100A100059FFBEE72A78043597E7A00402D5002BDA
:100A200041D02DB2002BE3D0002DE1DA210506D50F
:100A30002D22394602A8FFF745FF24F40074013E39
:100A40006D42620510D504F01F0BBBF1080F02D0F8
:100A5000BBF1100F08D13022394602A8FFF732FF50
:100A6000BBF1100F21D0013E35BB30230DF10D0B32
:100A70008DF80C3014F4006F14BF30232023019341
:100A800003ABABEB0305B5422BDBA30504D52D224D
:100A9000394602A8FFF716FF03AB9B453FF44FAF63
:100AA0001BF8012DF4E7ADB2A2E77822394602A87F
:100AB000FFF708FF023ED7E7104B14F4807F104A7F
:100AC00008BF1A460DF10C0B04F01F00B5FBF0F146
:100AD00000FB1155555D0BF8015B0D460029F5D162
:100AE000C8E7019A394602A8FFF7ECFE013ECAE7C3
:100AF000B9459CBF009B09F80320FDE6451100089D
:100B0000341100080CB407B504AB53F8042B01935F
:100B1000FFF7E0FE03B05DF804EB02B0704700BFE2
:100B20002DE9FF418E488F49884203D08E4A121A20
:100B3000FFF79AFD8D488E4D8E4C2A1A0021FFF743
:100B40007AFDFFF7CDFBE3698B4E43F0C053E361C1
:100B5000FFF787FE8948FFF777FE8948FFF774FEA5
:100B60008848FFF771FE16220C218748FFF710FC1A
:100B700016220D218548FFF70BFC854B8548864FD3
:100B800019885A8804331B88008836883F8880B2C9
:100B9000B6B2BFB28DE8C10092B29BB289B27F48B3
:100BA000FFF752FE7E4B7F48198889B2FFF74CFE53
:100BB0007D4B7E481E68C6F30B01FFF745FE310CE6
:100BC0007B48FFF741FE16B17A48FFF73DFE03264A
:100BD00040F64D37E369012143F40013E3617648A1
:100BE000FFF724FCE369022143F48003E3617348C7
:100BF000FFF71CFCA369012143F48053A3617048F3
:100C0000FFF722FE6F4B5E601F605868831B5842DF
:100C10005841FFF703FCE369022143F48043E36199
:100C20006748FFF711FE684B40245E601F605868FC
:100C3000821B50425041FFF7F1FB01216348FFF74F
:100C40001FFC02214FF08040FFF71AFC314660483C
:100C5000FFF716FC04215F48FFF712FC01224FF456
:100C600000615D4B5A605D4B83F80B43C3F8801104
:100C70005B4819603E49FFF71DFC02223C49594878
:100C8000FFF718FC324658495548FFF713FC574EFA
:100C9000042255495348FFF70DFC21465448FFF7FD
:100CA000D3FDFFF75FFD3046FFF776FD4FF480621E
:100CB000FF212F48FFF7BFFC4FF480622C493046DC
:100CC000FFF707FD00283ED10446FFF785FB2851BA
:100CD0000434B4F5806FF8D1324621462448FFF73A
:100CE0006DFD224622494148FFF7F3FC58BB4148BD
:100CF000FFF7AAFD4048FFF7A7FD4022374B83F8D6
:100D00001E234FF08042C3F880213A481A60FFF753
:100D10009BFD14213948FFF797FD3949144C0E46C5
:100D20002246384D2F688A4210D923462F60B3429D
:100D3000F6D81D681A1DFFF74FFB85420DD0FFF74F
:100D400057FB72B6FEE7FFF753FBD3E702F1040847
:100D5000FFF742FB10604246E5E71346E7E700BFB6
:100D600000000020581100080400002008060020A0
:100D70009406002000100240F0F7FF1FD20F000879
:100D8000E60F00080B100008000C014000100140A5
:100D9000E8F7FF1FEEF7FF1FF2F7FF1F35100008FF
:100DA000E0F7FF1F5D100008002004E0711000084C
:100DB00085100008991000080054004000580040B9
:100DC000D31000080030014000380040002C0140E2
:100DD00000040040000800400000024000E100E084
:100DE00000000008010000089506002000FC000833
:100DF000E5100008470F0008FC100008101100085B
:100E0000FF4F002000000020526573657474696E06
:100E1000672E2E2E0A00457863657074696F6E0028
:100E2000495251005468726561640048616E646C97
:100E3000657200556E65787065637465642025730E
:100E4000202325752061742050433D2530387820BB
:100E5000282573293A0A002072303A20202530389C
:100E60007820202072313A20202530387820202028
:100E700072323A20202530387820202072333A20F0
:100E800020253038780A002072343A202025303866
:100E90007820202072353A202025303878202020F4
:100EA00072363A20202530387820202072373A20B8
:100EB00020253038780A002072383A202025303832
:100EC0007820202072393A202025303878202020C0
:100ED0007231303A20253038782020207231313A72
:100EE00020253038780A00207231323A20253038F7
:100EF0007820202073703A20202530387820202058
:100F00006C723A20202530387820202070633A20F7
:100F100020253038780A00206D73703A202530384B
:100F2000782020207073703A2025303878202020D7
:100F30007073723A20253038780A002A2A464149CF
:100F40004C45442A2A0A004F4B0A005465737469C1
:100F50006E672049324325642E2E2E20005B4661A9
:100F60006B6520436869703F5D2000546573746948
:100F70006E672054494D25642E2E2E2000444D418D
:100F80002054657374202325752E2E2E20005B536C
:100F9000707572696F7573204952513A2046616BC2
:100FA0006520436869703F5D20005B4261642044B6
:100FB0006174615D20002A2A4641494C45442A2A31
:100FC000205B457863657074696F6E202325755DBD
:100FD0000A000A2A2A20426C696E6B7920546573D4
:100FE00074202A2A0A002A2A204B65697220467238
:100FF00061736572203C6B6569722E78656E40671F
:101000006D61696C2E636F6D3E0A002A2A20687438
:101010007470733A2F2F6769746875622E636F6DF1
:101020002F6B656972662F477265617365776561BD
:101030007A6C650A0053657269616C203D20253029
:1010400034783A253034783A253034783A253034BB
:10105000783A253034783A253034780A00466C6185
:1010600073682053697A6520203D2025756B420AFC
:1010700000446576696365204944203D2030782529
:101080003034780A005265766973696F6E20203DAE
:10109000203078253034780A002A2A5741524E49A8
:1010A0004E472A2A3A2031307878382F422064651A
:1010B000766963652072657475726E656420766109
:1010C0006C6964204944434F4445212046616B6567
:1010D0003F0A0054657374696E6720535049256454
:1010E0002E2E2E200054657374696E672025756B53
:1010F0004220466C6173682E2E2E2000456E616280
:101100006C652054494D34204952512E2E2E20001A
:1011100054657374696E672025756B422053524184
:101120004D2028656E646C657373206C6F6F702939
:101130002E2E2E0030313233343536373839414295
:10114000434445460030313233343536373839611F
:081150006263646566000000A3
:041158003C26A28708
:0400000508000000EF
:00000001FF
